:100000000C948B030C94C3030C94C3030C94C30390
:100010000C94C3030C94C3030C94C3030C94C30348
:100020000C94C3030C94C3030C94B5310C948D321F
:100030000C946A310C94C3030C94C3030C94C30353
:100040000C94C3030C94C3030C94C3030C94C30318
:100050000C94C3030C9491310C94C3030C94C3030C
:100060000C94C3030C94C3030C94C3030C94C303F8
:100070000C94C3030C94C3030C94C3030C94C303E8
:100080000C94C3030C94C3030C94C3030C94C303D8
:100090000C94C3030C94C3030C94C3030C94C303C8
:1000A0000C94C3030C94C3030C94C303050109808F
:1000B000A101850319012AB700150126B700950192
:1000C00075108100C0050C0901A101850419012AE0
:1000D000A002150126A002950175108100C005013E
:1000E0000906A1018506050719E029E71500250184
:1000F0009508750181020507190029EF15002501F2
:1001000095F075018102050819012905950575010C
:100110009102950175039101C00660FF0961A1017B
:100120000962150026FF00952075088102096315F4
:100130000026FF00952075089102C005010906A15F
:1001400001050719E029E7150025019508750181CA
:10015000029501750881010507190029FF15002680
:10016000FF0095067508810005081901290515008D
:100170002501950575019102950175039101C00056
:10018000000000000000000000000000000000006F
:10019000000000000000000000000000000000005F
:1001A0000000007E0F00D4FFFFFFC70000007800B2
:1001B000000000000000002A2B28000000000000C2
:1001C0000000000000000000000029000000002CDA
:1001D0001E3420212224342627252E362D37382779
:1001E0001E1F202122232425263333362E37381F85
:1001F0000405060708090A0B0C0D0E0F1011121347
:100200001415161718191A1B1C1D2F3130232D35E4
:100210000405060708090A0B0C0D0E0F1011121326
:100220001415161718191A1B1C1D2F3130354C09BF
:10023000025B00030100A0FA0904000001030101B0
:100240000009211101000122440007058103080073
:10025000010904010002030000000921110100014D
:100260002222000705820320000107050303200066
:10027000010904020001030000000921110100012D
:10028000226D000705840320000112010002000016
:10029000000855F094200001010203011C037600C0
:1002A000690061006C003A006600360034006300AB
:1002B0003200620033006300000020036700650025
:1002C0006E006500720061006C0069007A006500D4
:1002D00064005F00630061006400000018036E00AA
:1002E000610063006F002D00640065007300690009
:1002F00067006E0000000403090429000D014C0092
:10030000250226023800340201520B0108052400A0
:10031000250026002D002B43060119012100220093
:1003200023003302E1001D011C011E001F002000FC
:100330002800E0000000E200270037432A00000008
:100340000100010001000100010001000100025252
:100350000100010001000100010001000100010095
:100360000100010001000100010001000100010085
:100370000100010001000100010000000100010076
:1003800001000100000007010C0301000100010051
:100390000100010000522C000100010001000100D9
:1003A0000100010001000100010001000100010045
:1003B000010001001D030100010001000100010016
:1003C00000000100010001000100000035040A01E5
:1003D0002A002F0030000100010016010B0501006A
:1003E0004A0052004B00360200001B010100500081
:1003F00000004F0037020100010001004D005100D4
:100400004E002D02010000000100360000002C000B
:1004100000000001010101010101010102020202CB
:10042000020202020203030303030303030404049E
:100430000404040405050505050606060606070767
:1004400007070708080808090909090A0A0A0B0B1F
:100450000B0C0C0C0D0D0D0E0E0E0F0F0F101011BE
:100460001111121213131414151516161717181844
:1004700019191A1A1B1B1C1D1D1E1E1F20202122AC
:1004800022232424252626272829292A2B2C2D2DF2
:100490002E2F30313232333435363738393A3B3C0F
:1004A0003D3E3F404142434445464748494A4C4D02
:1004B0004E4F50515354555658595A5B5D5E5F61CB
:1004C0006264656668696B6C6D6F7072737577785E
:1004D0007A7B7D7E8082838587888A8C8E8F9193BC
:1004E0009596989A9C9EA0A2A3A5A7A9ABADAFB1E3
:1004F000B3B5B7BABCBEC0C2C4C6C9CBCDCFD1D4C8
:10050000D6D8DBDDDFE2E4E7E9EBEEF0F3F5F8FA6D
:10051000FDFF010001002805732889280000020062
:100520000200240573288928000003000100290522
:10053000732889280000040002000E05732889280A
:10054000A007050001002A0573288928000006007D
:100550000200100573288928000007000200260504
:10056000732889280000080001002B0573288928BA
:100570000000120002002C057328892800001300D7
:1005800002002E05732889280000140001003005A0
:10059000732889280000150000000000A907800FBB
:1005A0000000FD377A585A000004E6D6B44602002F
:1005B000210116000000742FE5A3E002CE01345D96
:1005C000003D8889C65436C3174FE4F22A014322FE
:1005D000023F2C3DDF1C19E12D2CA5938A8D79D982
:1005E00078EABA04FD0CC58E6677474FB5E79C6084
:1005F0004680586EF1286AABA5FD2BC379DDC44552
:1006000022B77814FF19E487C7A19DAFD5D96D2013
:100610001656F52E4F899AA9AD968FBCE68F3F737B
:10062000B4B35BDC4950183FDD37D24753F4629FC7
:10063000D967B174B07F0F3E6C7035ED8A94E0FEDF
:100640000AACAC4CEA0B2591C9E328DD82F7CB1646
:10065000C8A4F6B33FE925A6E1DEFA97C9338DA019
:100660000D9E0D52168C5198B93D485A2D30596146
:10067000EC4D93B2472463D2D5A3A609B0235D8F76
:10068000E69674BBB1ADA60F3A471B8D84F17DA3EE
:1006900056E2B2F3EF948B050AAFC3F783B8D66A7C
:1006A000C311486CCE6B1CF8E3FD19A351C9223C61
:1006B000DBD442E37901B969D46982708F2013A039
:1006C0003CFC7E1E60C45B1825DA8D6132C7255F55
:1006D000BBF7763FE40DBE6892F09974D8B821A5B7
:1006E0007FE28CAAC08DB1B1463632F577D9CE699A
:1006F00026C60F302D006E61FA528AAD132E00010E
:10070000D002CF05000029A74E83B1C467FB0200C9
:1007100000000004595A11241FBECFEFDAE0DEBFFB
:10072000CDBF04B603FE18C0809136059091370501
:10073000A0913805B09139058730904BA740B04B58
:1007400059F4109236051092370510923805109220
:100750003905E0E0F8E3099511E0A0E0B1E0E8EE4A
:10076000F8E602C005900D92A43AB107D9F725E04A
:10077000A4EAB1E001C01D92A633B207E1F70E94DE
:100780004B290C9409340C9400009C019A95811516
:100790009F4118F5F32FF270EE27832F8170732F8E
:1007A00074706627532F5870442734FF0CC082950D
:1007B000807FEF2B09F08062672B09F08064452B66
:1007C00069F080680895EF2B09F08260672B09F0CB
:1007D0008460452B19F08860089580E00895CF93D8
:1007E000DF93EB010E94C503FE010995DF91CF91D4
:1007F0000895982F92959F7024E0911102C020E0F7
:10080000982F892F86958695811511F02E5F982F48
:10081000892F8695820F0895282F92959F70963084
:1008200099F060F4925F9F70923030F4203FB1F005
:1008300038F481E0283E38F080E008959A5FF3CFE5
:1008400081E0243FC9F7089591E0813F09F090E0ED
:1008500081E0283E08F080E0892B089581E008952A
:1008600080930C050895292F953090F5873080F5F9
:1008700090E037E0239F800D911D1124282F2770D1
:1008800041E001C0440F2A95EAF723E09695879549
:100890002A95E1F7FC01EE0FFF1FE80FF91FE65E56
:1008A000FC4F20E030E070E05191DF01CB01022EDF
:1008B00002C0969587950A94E2F781708195852705
:1008C000842385278E932F5F3F4F2330310561F7B7
:1008D0000895292F953078F5873068F590E037E056
:1008E000239F800D911D1124682F677023E096953A
:1008F00087952A95E1F7FC01EE0FFF1FE80FF91F1E
:10090000E65EFC4F40E050E080E0219130E0062EB2
:1009100002C0369527950A94E2F721703327042EFA
:1009200001C0220F0A94EAF7822B4F5F5F4F4330DA
:10093000510559F7089580E008958091C80290917B
:10094000C702981301C008958F5F8770FACF909106
:100950005704982B909357040895982F9095809161
:100960005704892380935704089580915604811574
:1009700031F01092560410925504109254040895C8
:100980009C01803E910509F448C0D8F4813391055B
:1009900009F47DC048F48932910509F46DC08A9745
:1009A00009F47CC0C90108958933910551F1823859
:1009B000910539F1C597B1F78091320585FFF2CFE6
:1009C00029C0843E910509F447C048F4823E910550
:1009D00099F1833E9105A9F121EE30E0E3CF863E07
:1009E000910509F444C0873E9105E1F680913205F6
:1009F00083FD61C09091330591FF2BC024EE30E060
:100A0000D1CF809132058370811152C0809133051E
:100A100083FFC8CF29E230E0C5CF8091320580FD49
:100A200033C09091330590FFBDCF23EE30E084FFBB
:100A3000B9CF20E030E0B6CF8091320582FDF5CF0E
:100A4000B1CF8091320582FD30C09091330590FD89
:100A50002FC084FFA7CFEDCF8091330581FFA2CFB8
:100A60008091320527EE30E084FDE3CF9BCF80916B
:100A7000320583FDF7CF96CF8091320585FD1EC0EC
:100A80008091330583FF8ECF29E330E08BCF8091B7
:100A9000320586FF87CF2AE230E084CF809132058D
:100AA00086FF80CF21E330E07DCF22EE30E07ACFA9
:100AB00020EE30E077CF26EE30E074CF25E330E053
:100AC00071CF9091320592FF10C041E0282F247120
:100AD000243009F040E031E0282F2871283009F057
:100AE00030E0431711F02CE0822793FF10C041E063
:100AF000282F2471243109F040E031E0282F28719B
:100B0000283109F030E0431711F02CE082273091B2
:100B1000330530FF10C051E0282F2171213009F03A
:100B200050E041E0282F2871283009F040E05417A8
:100B300011F029E0822731FF10C041E0282F2171F8
:100B4000213109F040E031E0282F2871283109F0E7
:100B500030E0431711F029E0822794FD877E089545
:100B60001F93CF93DF930E94C004EC01811522E50F
:100B7000920708F055C0811540E5940708F0D1C0F0
:100B8000803E910520F58D3C910508F0A4C0883A7F
:100B9000910570F4853A910508F09AC0813091056D
:100BA000D1F10497813A9105B0F1C0E0D0E033C0B3
:100BB000885A91094B97C8F7C85AD0E0CC0FDD1F6F
:100BC000C95CDE4F0990D881C02DD46424C0811542
:100BD00050E49507C0F4C11580E2D80708F0B7C00B
:100BE000C83ED105C0F0CE019A9581159F41E8F627
:100BF0008D2F0E946105182FCE0199270E94C004F5
:100C0000EC01D12B08C099270E94C004CC27DF70CB
:100C1000C82BD92BD06ACE01DF91CF911F910895B7
:100C2000803842E59407C8F5803652E5950708F00C
:100C30005BC0C03482E5D807D0F4C03292E5D90752
:100C400008F04BC08C2F8695869520E2829FC001CC
:100C50001124C37021E030E0A90102C0440F551FE8
:100C6000CA95E2F7EA01C82BD92BDD68D4CF8C2FC7
:100C700086958695877050E2859FC0011124C370C8
:100C800021E030E0A90102C0440F551FCA95E2F7E8
:100C9000EA01C82BD92BDC68BECF803C52E5950712
:100CA00058F48F71C03AD245A0F590E0982F88276C
:100CB000EC01C46FD06AAFCF805C9245809708F09A
:100CC00074CFDC2FCC27CC27DF71C06FD06AA3CFC5
:100CD000A497D064A0CFD0659ECFCF71D0E0DC2F99
:100CE000CC27C16FD06A97CF86958695877020E212
:100CF000829FC0011124C37021E030E0A90102C02D
:100D0000440F551FCA95E2F7EA01C82BD92BDA68C0
:100D100082CF0E946105C82FD0E0DC2FCC27D062A3
:100D20007ACF8F710E94610593E0CC0FDD1F9A95F9
:100D3000E1F7CC27DF70282F30E084FF04C050E1BA
:100D4000859F90011124C22BD32BD06964CF8D2FA6
:100D50008F710E946105182FCE0199270E94C0044F
:100D6000EC01D12BDCCF80E00895F894E82FE295D8
:100D7000EF70F0E041A18F7021E030E0B90102C0D6
:100D8000660F771F8A95E2F7CB01962F90959423F3
:100D900091A392A1892B82A378940895AF92BF92D8
:100DA000CF92DF92FF920F931F93CF93DF93F62E94
:100DB000E901E42FF0E0EE5EFB4F611110C0E49119
:100DC000BE2E2E2F2983E883BA82DF91CF911F9107
:100DD0000F91FF90DF90CF90BF90AF900895C82EF5
:100DE000D12CA62EB12C3491232F46E0849F800174
:100DF0001124EFEFF0E0C801BF010E94D832CC0C03
:100E0000DD1C45E5469FC001479F900D1124C81A7F
:100E1000D90A8C2D880FC80ECF018A199B095C0155
:100E20003A9DC0013B9D900D1124B92EFC9CD00130
:100E30001124AB2FBB27AF014A1B5B0BDA013A9F92
:100E4000A0013B9F500D1124DF01AC19B1096D01C8
:100E5000FC9CD001FD9CB00D1124AB2FBB27EA1BDD
:100E6000FB0B3E9FD0013F9FB00D1124EB2F633051
:100E70007105C1F00C3F134058F461307105B1F0B9
:100E80006230710509F09ECFE22F292FBB2E9ACF39
:100E90006430710571F06630710509F493CFE92F64
:100EA000B52E90CF292FB32EE52F8CCFE22F252FF3
:100EB00089CFE92FB22E2B2F85CF80914C0484301F
:100EC00070F480914C048370846080934C04809112
:100ED0004F04813418F080E480934F0408958830E3
:100EE00080F7F5CFFA01811511F009950895FB01FE
:100EF000FCCF9C0121158CE7380741F480919402C6
:100F000090919502892B11F420E030E0C9010895F9
:100F1000E8EBF3E080E090E064E777E24AE957E24B
:100F20002FE038E2778366835187408733872287B3
:100F300097878687019670968830910599F708956E
:100F400080910E0590910F0590930C0180930B01F9
:100F50000895EF92FF920F931F93CF93DF93FB01BE
:100F60008FEF9FEF4430510508F45FC04091320588
:100F700041FB882780F990E0880F991F42FB0027EA
:100F800000F910E0000F111F000F111F802B912B93
:100F900040FBEE24E0F8F12C8E299F2943FB222709
:100FA00020F9C22F50E0D52F53E0CC0FDD1F5A950A
:100FB000E1F78C2B9D2B44FB222720F950E1259F44
:100FC00090011124822B932B45FB222720F950E21C
:100FD000259F90011124822B932B46FB222720F979
:100FE00050E4259F90011124822B932B47FB22274D
:100FF00020F940E8249F90011124822B932B20910B
:101000003305322F3170932B26952170B22FBB0FF1
:10101000A0E08A2B9B2B092E000CAA0BBB0B808314
:101020009183A283B38380E090E0CDB7DEB7E6E0A2
:101030000C942133539A08959C0143E0969587952B
:101040004A95E1F78E719927FC01E551FE4F4081E9
:101050005181F901EF70FF2721E030E002C0220F3B
:10106000331FEA95E2F7611541F0422B532B85516E
:101070009E4FFC0151834083089520953095422373
:101080005323F5CF10929E0410929D04EDE5F4E0F9
:101090008581811102C014821682379684E0E53979
:1010A000F807B1F70895AC013091A00460919F0456
:1010B000232F621301C00895822F90E0FC01EE0FF0
:1010C000FF1FEB56FB4F0190F081E02DE417F50771
:1010D00091F467E0649FF001659FF00D1124E35ADD
:1010E000FB4F41E044832313E6CF01968370992799
:1010F0008093A00408950196282F2370DACFFC0175
:101100008481862381110AC082818115B9F0682308
:10111000908593FF05C081E061110FC080E00895C4
:10112000282F22952F708F70282B962F92959F70C5
:101130006F70962B81E02913F1CF089581E0089517
:10114000FA01309709F009950895E091BD02F091F8
:10115000BE02309729F00190F081E02D09950895A5
:1011600080E00895A3E0B0E0E8EBF8E00C940933E8
:101170009C018091E8019091E90182179307A1F009
:101180003093E9012093E801E091BD02F091BE02A5
:10119000309751F083E089833B832A830084F18573
:1011A000E02DCE01019609952396E2E00C942533BB
:1011B000A3E0B0E0EEEDF8E00C9409339C018091DF
:1011C000E6019091E70182179307A1F03093E701C0
:1011D0002093E601E091BD02F091BE02309751F0FC
:1011E00084E089833B832A830084F185E02DCE014E
:1011F000019609952396E2E00C94253390910D0118
:10120000911112C0A8EAB1E0EFEF90E02D918217A2
:1012100051F0EF3F19F4211101C0E92F9F5F963083
:10122000A9F7EF3FC9F408959091320597FFEACFEF
:10123000E82FE695E695E695803FA8F7F0E0E255C1
:10124000FE4F877021E030E001C0220F8A95EAF757
:101250008281822B828308950E2E000CFF0BEA55AB
:10126000FE4FF8CF90910D01911521F0909132052C
:1012700097FD0CC0E8EAF1E09191891302C0DF010B
:101280001E9251E0EE3AF507B9F70895E82FE6957A
:10129000E695E695803FC8F7F0E0E255FE4F87708F
:1012A00021E030E0A90102C0440F551F8A95E2F702
:1012B000CA01809592818923828308952FB7F8947B
:1012C0008091770290917802A0917902B0917A0290
:1012D0002FBF08958091100590911105892B91F0F1
:1012E0000E945E092091540430915504AC01421BC8
:1012F000530B9A0181E0409110055091110524177C
:10130000350708F480E00895CF93DF93C091570428
:1013100080915904C82B809156048115F9F0809171
:10132000100590911105892B29F00E946A098111FD
:101330000E94B504D091560480910D01811521F0D1
:101340008091320587FD14C086E028EA31E090E004
:10135000815090F491110E94B504CD2B80913403FB
:1013600080958C2390913303892BDF91CF91089541
:101370008EE120EB31E0EBCFF90141919F01411566
:1013800039F39F5FE5CF90915604292F282321152B
:1013900061F08095892380935604811539F00E946D
:1013A0005E098093540490935504089580E090E082
:1013B000F8CFCF93C82F8091330582FF0CC0809166
:1013C00056048C1741F00E945E0990935504809357
:1013D0005404C0935604CF9108952FB7F8946091A8
:1013E0007702709178028091790290917A022FBFF2
:1013F00008950F931F93CF93DF93D82FC92F409158
:10140000B2035091B3036091B4037091B5032FB749
:10141000F8948091770290917802A0917902B0912E
:101420007A022FBF841B950BA60BB70B843F91400C
:10143000A105B10528F56091B2037091B3038091C5
:10144000B4039091B50304EF11E020E030E0609325
:101450007F027093800280938102909382020093B6
:101460007B0210937C0220937D0230937E02D09306
:10147000B003C093B103DF91CF911F910F910895F5
:101480000E94ED0902E310E020E030E0E0CF9C0193
:101490004FB7F8948091770290917802A0917902E9
:1014A000B0917A024FBF821B930B08958091E501A2
:1014B00008950895FC019B018091DB019091DC016E
:1014C0008617970740F0672B29F48091E8008E7704
:1014D0008093E800C90140E0009741F4411106C043
:1014E0008091E80082FF2FC080E00895209196024D
:1014F0002115A9F12530A9F12091E80023FD2DC087
:101500002091E80022FDECCF2091E80020FFE4CFFD
:101510003091F3002091F200009719F02830310546
:1015200058F041E02830310509F040E02091E80012
:101530002E772093E800D0CF41914093F10001979E
:101540002F5F3F4FE9CF80919602811541F08530A2
:1015500041F08091E80083FFC3CF81E0089582E0ED
:10156000089583E008958091D50187FF13C080918D
:10157000E80082FF06C08091E8008B778093E80046
:101580000895809196028111F2CF0895809196027C
:101590008115D9F38091E80080FFF8CF8091E800B1
:1015A0008E77ECCF2091E4003091E50095E6A9011B
:1015B0002091EC00822F817020FF06C08091E8000E
:1015C00080FF06C080E008952091E80022FD1AC047
:1015D00080919602811589F0853089F08091EB0029
:1015E00085FD0FC02091E4003091E50042175307BC
:1015F000F9F29A95E1F684E0089582E0089583E097
:10160000089581E00895E8EDF0E080818E7F808389
:101610001092E2001092DA001092E100A0EEB0E029
:101620008C9181608C9380818F77808319BCA7ED2A
:10163000B0E08C918E7F8C9380818F7E808310921E
:10164000D4010895982F9093E900891771F0709153
:10165000EC002091ED005091F00021FD09C09F5F4A
:10166000973089F78093E9000895762F242F50E072
:101670003091EB003E7F3093EB003091ED003D7FE9
:101680003093ED003091EB0031603093EB007093BC
:10169000EC002093ED005093F0002091EE0027FD28
:1016A000DECF0895A0E0B0E0E8E5FBE00C94033362
:1016B000C8EDD0E088818F7E8883E7EDF0E08081FF
:1016C0008160808384E082BF81E08093D40188813F
:1016D0008E7F888302EE10E0F80110821092DA000B
:1016E00081EEC82ED12CF601108288818F778883F5
:1016F00088818068888388818F7D888319BC109257
:1017000096021092D301109270021092D20190EEC4
:10171000E92EF12CF70180818B7F808388818160A5
:10172000888342E060E080E00E94220BF601808125
:101730008E7F8083F80180818160808380818860D2
:101740008083F70180818E7F808388818061888398
:10175000CDB7DEB7E8E00C941F339C0121153105AD
:1017600009F408958FE99FE00197F1F700C00000A8
:1017700021503109F3CF9C01FB014BB1477F5BB195
:1017800058606FB7F894CF01880F991F8E0F9F1F75
:10179000820F931F2817390741F46FBF8FE594E03C
:1017A0000197F1F700C000000895F90171919F01C0
:1017B000E8E05BB9000000C077FF4BB9770F00008D
:1017C00000C000C000C04BB900C0EA9591F7E2CF5D
:1017D00081E08093E00080E28093D8001092C900FD
:1017E0008FE19EE40197F1F700C0000087E090EBE5
:1017F000DC018093360590933705A0933805B093AC
:10180000390588E19CE00FB6F894A89580936000B4
:101810000FBE90936000FFCF0F931F93CF93DF9382
:101820008B01EA0190919602943059F58093E9007A
:101830008FEF9091E80095FD06C095ED9A95F1F730
:1018400000008A95B1F78091E80085FF1AC00E94D8
:10185000D20A811111C08091E80085FD06C08091F7
:10186000E8008E778093E800F2CFF80181918F0134
:101870008093F100219779F78091E8008E7780932B
:10188000E800DF91CF911F910F910895CF93DF93DF
:10189000D82FC92F48E050E0682F792F81E00E94AF
:1018A0000C0C88E0ED2FFC2FADEDB1E001900D9216
:1018B0008A95E1F7DF91CF910895BC0140E250E0B5
:1018C00084E00E940C0C0895BC0143E050E084E0E9
:1018D0000E940C0C08951F93CF93DF93962F122F25
:1018E000632F8430D8F49530C8F44730B8F4C42F4F
:1018F000D0E0CC0FDD1F2EE0929FC00DD11D112432
:1019000096E4899FC00DD11D1124CE0188960E94B6
:10191000CD33612FCE0189960E94CD33DF91CF91D7
:101920001F910895CF93DF93C4E5D2E060E0CE012C
:101930000E94CD332196C11584E0D807B9F7DF9115
:10194000CF910895CF93C82F6FEF84E290E00E946B
:10195000CD3364E1C11101C06FEF85E290E00E94D8
:10196000CD3369EAC11101C06FEF86E290E00E94B9
:10197000CD33CF9108950F931F93CF93DF930EE054
:1019800015E0C0E4D1E0CE010E94A933F8016191D5
:101990008F01681719F0CE010E94CD332196C4360D
:1019A000F1E0DF0781F7DF91CF911F910F9108954B
:1019B0000F931F93CF93DF930EE015E0C0E4D1E0C7
:1019C000CE010E94A933F80181938F012196C4367C
:1019D000F1E0DF07A9F7CCE1D5E0FE018591949114
:1019E000009711F0FC0109952C96F5E0CC3ADF0741
:1019F000A1F7DF91CF911F910F9108950F931F933E
:101A0000CF93DF93843030F5653020F5473010F503
:101A1000C42FD0E0CC0FDD1F2EE0629FC00DD11D82
:101A2000112436E4839FC00DD11D1124CE01889668
:101A30000E94A933082F10E0102F0027CE018996AD
:101A40000E94A9339801282BC901DF91CF911F91E2
:101A50000F91089580E090E0F8CF462F672F2091F6
:101A6000990230919A02232B91F4703F39F4403F50
:101A700071F480919702909198020895753038F42E
:101A8000473028F4843018F40E94FE0C089580E05A
:101A900090E00895A0E0B0E0E0E5FDE00C940433B0
:101AA0007C0100910D0580910C05082BC3E0D0E06E
:101AB00010E0C8010C2E02C0959587950A94E2F7B4
:101AC00080FD09C02197A8F7D12C8D2DCDB7DEB7A9
:101AD000E7E00C942033DC2EB7018C2F0E942D0DF3
:101AE0000E94B005019771F3F0CFCF93DF93D82F09
:101AF000C92F0E944A0D6D2F7C2F0E942D0D0E9430
:101B0000B005DF91CF910895FC018481811571F0BA
:101B100087819085009729F00E94B0050E940C04EF
:101B20000895808191810E94750DF8CF80E008951D
:101B30001F93CF93DF93182FD92F611599F041157B
:101B400089F00E944A0DC82F682F812F9D2F0E9477
:101B50003304612F7D2F8C2F0E942D0DDF91CF91AB
:101B60001F9108950E946904C82FF3CFCF93DF938C
:101B7000FC01462FC781D085209731F46581808193
:101B800091810E94980DEC01CE01DF91CF910895D3
:101B900084E290E00E94A9338F3F89F485E290E0CF
:101BA0000E94A933843159F486E290E00E94A9335F
:101BB00091E0893A09F090E0892F8170089580E0E2
:101BC000FCCF80910D01811559F18091320587FF7D
:101BD00027C00E9484098093AF0140E250E06DE984
:101BE00072E08EEA91E00E947C33892BC1F080E2A2
:101BF000EEEAF1E0ADE9B2E001900D928A95E1F7ED
:101C0000E091BD02F091BE02309749F086E08093EA
:101C1000AE010480F581E02D8EEA91E009950895EA
:101C20000E9484098093A60148E050E06FEB72E0C7
:101C300086EA91E00E947C33892B89F388E0E6EA0A
:101C4000F1E0AFEBB2E001900D928A95E1F7E091FF
:101C5000BD02F091BE02309711F30280F381E02DB6
:101C600086EA91E0DBCF811521F00E94A7040E9453
:101C7000E10D0895811539F090915904892B8093D5
:101C800059040E94E10D0895811521F00E94AD04D0
:101C90000E94E10D0895811541F0809590915904BD
:101CA0008923809359040E94E10D0895CF93C82F92
:101CB0008115D9F08CEF8C0F813AA8F580910D0138
:101CC000811521F08091320587FD11C0E8EAF1E02D
:101CD0008EEA91E02191C21701F18E179F07D1F78B
:101CE0008C2F0E94FE080E94E10DCF910895EC2FE9
:101CF000E695E695E695F0E0E255FE4F828190E0AC
:101D00004C2F477021E030E002C0220F331F4A956C
:101D1000E2F782239323892B19F38C2F0E94320937
:101D20000E94E10DDDCF80E28C0F883048F4C7704F
:101D300081E001C0880FCA95EAF70E94A704D3CFBB
:101D40008BE58C0F833038F42C2F2452330BC901D0
:101D50000E94B208CACFC85ACB3138F6EC2FF0E057
:101D6000EE0FFF1FE359FE4F808191810E94D8083A
:101D7000BCCFCF93DF93EC01805E9109089720F0F0
:101D80006AE37EE0209711F463E37EE0CE010E94D7
:101D9000EF038C2F0E94560EDF91CF9108959C0186
:101DA000611529F080915904826080935904C9011A
:101DB00090528115904308F43327C9010E94B90E4F
:101DC0000895811539F19CEF980F913A28F40E94FB
:101DD00032090E94E10D089590E2980F983050F476
:101DE000877091E001C0990F8A95EAF7892F0E94C8
:101DF000AD04EFCF9BE5980F933028F480E090E09E
:101E00000E94B2080895885A8B3120F480E090E057
:101E10000E94D8080895CF93DF93EC010E94E10E51
:101E2000CE01805E9109089720F06BE47EE0209758
:101E300011F464E47EE0CE010E94EF03DF91CF91C4
:101E400008950F931F93CF93C82F8B010E94560EB6
:101E50000115110539F48C2F0E94E10ECF911F91CD
:101E60000F9108958FE99FE00197F1F700C00000FE
:101E700001501109EDCF60912E0570912F05893326
:101E800021F060912C0570912D050E94210F08957D
:101E90001092570480910D018115C1F08091320597
:101EA00087FF14C0E0EBF1E08EE1DF011D928A951F
:101EB000E9F780E090E00E94B20880E090E00E94A4
:101EC000D808109259040E94E10D0895E8EAF1E063
:101ED00086E0EBCF0E94480F2FEF84E39CE0215077
:101EE00080409040E1F700C0000088E19CE00FB620
:101EF000F894A895809360000FBE90936000FFCF88
:101F0000CF93DF93FB018FEF9FEF44305105B8F083
:101F1000D081C1810E94480FD0933205C370809157
:101F200033058C7FC82BC0933305609132057091C7
:101F3000330584E090E00E94EB3380E090E0DF9195
:101F4000CF910895EEE0F5E0128E138E8FEA90E0C7
:101F50009183808385E0848F28E833E13383228373
:101F600022E330E0378B268B28EC30E0318F208F56
:101F7000158E178E168E20E530E031A320A382A3A4
:101F80000E94BB0C0E94480F10923305109232053C
:101F900080E084608093330560E074E084E090E04A
:101FA0000E94EB330E94D80C0895AAE2B0E0EBED5A
:101FB000FFE00C94083385ED91E0FC01019620913F
:101FC000F100208321E08D3D9207B9F78091D60181
:101FD000893009F456C0C8F4823009F4B3C08330A4
:101FE00009F482C0813071F18091E80083FFE7C07D
:101FF0008091D5019091D6019A3008F0E0C0E92F88
:10200000F0E0E55FFB4C0C94EC328A3009F489C0B7
:102010008B3051F78091D501813231F78091D90110
:102020009091DA01892B01F78091E800877F8093F6
:10203000E8000E94B30A8091D70180930D010E94AD
:10204000480FD2CF8091D501813A71F68091E80096
:10205000877F8093E8008091D9019091DA01892BE4
:1020600061F060E080E090E070E00E945A0A8091A8
:10207000E8008B778093E800B7CF68E08DED91E0C2
:10208000F3CF8091D501813209F0AECF8091D90193
:102090009091DA018D7F892B09F0A6CF8091E8001D
:1020A000877F8093E8008091E80082FF18C09091BC
:1020B000F3008091F200029731F48091F1008130B9
:1020C00011F0863021F48091F1008093E501809138
:1020D000E8008B778093E8000E94B30A85CF809157
:1020E00096028111E0CF80CF8091D501813A09F02D
:1020F0007BCF8091D9019091DA01892B09F074CFBF
:102100008091E800877F8093E8008091E80080FF5D
:10211000FCCF80910D018093F1008091E8008E77D3
:10212000D9CF8091D501813209F05ECF8091E8004E
:10213000877F8093E8000E94B30A8091D801809342
:10214000D10152CF8091D501813A09F04DCF8091D4
:10215000E800877F8093E8008091E80080FFFCCF53
:102160008091D101D8CF803889F0823841F58091B3
:10217000D9018F70873018F58093E9008091EB00CA
:1021800085FB882780F91092E90006C080917002D3
:10219000880F9091D201892B9091E800977F9093BE
:1021A000E8008093F1001092F1008091E8008E77B2
:1021B00023C0811116C08091D701813011F1809127
:1021C000E80083FF0AC08091E800877F8093E800E1
:1021D0008091EB0080628093EB00AA96E3E00C9480
:1021E0002433823061F78091D701811589F01092F4
:1021F000E9008091E800877F8093E8000E94B30A9D
:10220000DECF81E0933009F080E080937002EFCF61
:102210008091D9018F702FEF280F263080F68093A0
:10222000E9002091EB0020FFE2CF933031F4809160
:10223000EB0080628093EB00DACF9091EB0090612D
:102240009093EB0021E030E0A90102C0440F551F3C
:102250008A95E2F74093EA001092EA008091EB0041
:102260008860E8CF8111ABCF1091D7011F778091A3
:10227000E3008078812B8093E3008091E800877FE2
:102280008093E8000E94B30A8091E80080FFFCCFB1
:102290008091E30080688093E30083E0111101C026
:1022A00082E0809396028BCF8058823008F087CFEF
:1022B0008091D7019091D8018C3D53E0950799F515
:1022C00083E08A838AE289834FB7F894DE0113960C
:1022D00020E03EE051E2E32FF0E05093570084917C
:1022E00020FF03C082958F703F5F8F708A30C8F0E7
:1022F000895C90E08D939D932F5F243161F74FBFF0
:102300008091E800877F8093E8006AE270E0CE0168
:1023100001960E945A0A8091E8008B778093E8002A
:102320004ECF805DE6CF292F33272330310509F4C6
:102330004EC078F52130310509F488C08BE590E076
:10234000EFE2F2E02230310509F039CF2091E800C8
:10235000277F2093E8002091DB013091DC01821778
:10236000930708F49C0140E02115310509F073C082
:10237000411171C08091E80082FDCDCF809196021D
:10238000811549F2853039F28091E80083FFF2CF60
:10239000C2CF8091D9019091DA012132310509F43F
:1023A00046C02232310509F00ACF8330910508F08A
:1023B00006CFFC01EE0FFF1FE35EFE4F0190F081A0
:1023C000E02D865E9E4FDC018C9190E010C09C0158
:1023D0003327823021F12330310568F4232BB9F4FF
:1023E000E6EFF2E0E4918E2F90E0E6EFF2E0009766
:1023F00009F4E5CEABCF2330310509F0E0CEECE9AE
:10240000F2E0E4918E2F90E0ECE9F2E0F0CFECED19
:10241000F2E0E4918E2F90E0ECEDF2E0E8CFEAEB11
:10242000F2E0E4918E2F90E0EAEBF2E0E0CF83302F
:10243000910508F0C4CEFC01EE0FFF1FED5DFE4FCD
:102440000190F081E02D89E090E080CF82E190E082
:10245000EAE8F2E07BCF80919602811509F45BCF28
:10246000853009F458CF8091E80083FD54CF8091E6
:10247000E80082FD7FCF8091E80080FF75CF9091CA
:10248000F3008091F2002115310519F08830910593
:1024900050F041E0089709F040E08091E8008E7725
:1024A0008093E80061CF44914093F1003196215030
:1024B00031090196E8CF803809F081CE8091E8009B
:1024C000877F8093E8008091D3018093F1006DCEE7
:1024D000811175CE1091D701123008F070CE809125
:1024E000E800877F8093E8001093D3010E94B30A2D
:1024F0001115D1F084E08093960242E061EC81E016
:102500000E94220B42E261EC84E00E94220B42E234
:1025100061EC82E00E94220B42E260EC83E00E94C8
:10252000220B809196024BCE8091E30087FDE2CF93
:1025300081E0E1CF80910F01877F80930F0190911F
:1025400059049D7F9093590484FF06C08F7E809329
:102550000F0182E00E94A70480910F0185FF06C051
:102560008F7D80930F0180E20E94A7040E94E10DFD
:102570000895CF92DF92FF920F931F93CF93DF9333
:10258000EC018B01F42E80910F0182FF65C0C09099
:102590003E04D0903F04CC16DD0619F0209709F0D8
:1025A0005BC080910F018B7F80930F01C1E081FDA3
:1025B00010C080913C0490913D049801281B390B78
:1025C000C1E080910B0190910C012817390708F4A4
:1025D000C0E080910F01C0FB81F980930F016C2F47
:1025E000C6010E941C088091570481FF08C0809199
:1025F0000F01806180930F0182E00E94AD04809101
:10260000570485FF08C080910F01806280930F01FD
:1026100080E20E94AD046C2FC6010E94CF0EF1141F
:1026200031F08091290585FF02C086FF29C0809185
:102630002C0590912D050E94AD0B80913E04909148
:102640003F049C0130522115304308F499270E9421
:102650000B0F0E949A1210C0CE0190528115904328
:10266000B8F4CE0199270E940B0F80913E049091FF
:102670003F04C817D90769F310933D0400933C0445
:10268000DF91CF911F910F91FF90DF90CF90089530
:10269000CE01E9CFCF93DF93EC014A855B856E8550
:1026A0007F850E94A0089B81909580915904892381
:1026B000809359048C810E94AD040E94E10D86E054
:1026C000FE0111928A95E9F7DF91CF910895CF939A
:1026D000DF93EC018D8181FD14C082608D83809138
:1026E00059049B81892B809359048C810E94A704F3
:1026F0000E94E10D488559856E857F85CE010E9437
:10270000A00810923904109238048D8180FD03C016
:10271000CE010E944A13DF91CF9108951F93CF936A
:10272000DF93182FA091AE03B091AF03109709F477
:102730004AC01092B1031092B00310923403109269
:1027400033031696CD91DC911797CE019A9581159A
:102750009F4108F4D07ED1E0C11101C0D0E01996AC
:10276000ED91FC911A97309731F01B966D917C9109
:1027700080E00995D823D11539F08CEF8C0F813A80
:1027800030F58C2F0E9432091115A9F0E091AE03AB
:10279000F091AF03808584FD0EC08091AD0381155B
:1027A00051F0808191819C01215031092F333E47A6
:1027B00010F40E94F9090E94E10D1092AF031092EB
:1027C000AE031092AD03DF91CF911F9108950E9447
:1027D000E10D8C2F0E94E10ED7CFA0E0B0E0E3EF37
:1027E000F3E10C940233EC018881811509F4A1C056
:1027F000813009F044C08981813049F48E010E5F37
:102800001F4F8A810E943B0FE8012196EDCF823055
:1028100039F48E010E5F1F4F8A810E94560EF4CF4D
:10282000833039F48E010E5F1F4F8A810E94E10EC2
:10283000EBCF843011F02196E8CF2A81229680E0F8
:1028400090E06AE0AE014F5F5F4F2053330B2A30B8
:10285000310550F00097C9F2EFE9FFE03197F1F749
:1028600000C000000197F6CF689FF001699FF00D4E
:102870001124C9018E0F9F1F2981EA01E3CFE82FA0
:10288000F0E0E155FE4FB490282F26952695269529
:1028900030E0F901E156FE4FE4908770F12C082EEC
:1028A00002C0F594E7940A94E2F7E0FAEE24FF24DC
:1028B000E0F8F901E157FE4FC490D12C082E02C078
:1028C000D594C7940A94E2F7C0FACC24DD24C0F86A
:1028D000F901E158FE4F049110E002C015950795EB
:1028E0008A95E2F701701127E114F10419F081EEE5
:1028F0000E94560EC114D10419F086EE0E94560EA5
:1029000060E070E08B2D0E94210FC114D10419F0FA
:1029100086EE0E94E10EE114F10419F081EE0E94AE
:10292000E10E0115110509F470CF8CE20E943B0FF6
:102930006CCFCDB7DEB7E9E00C941E3380914C0428
:1029400080FD06C010926502109264021092660229
:1029500061E070E084E692E00E94BB0B08959091E4
:102960004C0490FF08C0809365026093640240931A
:1029700066020E949E140895AEE1B0E0E2ECF4E13C
:102980000C94FE32A0909402B090950281E090E009
:102990009093950280939402812C912CE12C6401F8
:1029A000F12C15C0F80125913491472D6F2D8E2DF6
:1029B0000E946B0C0E5F1F4F739487E07812F2CF6A
:1029C000A7E0CA0ED11CF394B5E0FB1639F08601DE
:1029D000000F111F06501D4F712CE4CFE39483E2CA
:1029E000880E911CA4E0EA12DACF0E94A20F1A828C
:1029F00019821C821B821E821D8218861F8288EC0F
:102A000090E09A87898704E611E04AE050E0B80137
:102A1000CE0101960E94F133065F1F4F043BB1E0E7
:102A20001B0799F7FE013B968AE0DF011D928A950C
:102A3000E9F77F014AE050E0B801C7010E94F13395
:102A4000065F1F4F0430B2E01B07A1F7FE01759629
:102A500089E0DF011D928A95E9F78FEF9FEF9A8F4A
:102A6000898F87E08E8F7F014AE050E0B801C7016F
:102A70000E94F133065F1F4F0435B2E01B07A1F738
:102A8000B0929502A09294026E96EDE00C941A33E7
:102A900080E00E94A20C60E087E290E00E94CD33CB
:102AA0000E94BC140E94920C81E00E94A20C089526
:102AB000AAE0B0E0EEE5F5E10C940333ECE0F2E0DF
:102AC00080E5DF011D928A95E9F7EDE5F4E088E302
:102AD000DF011D928A95E9F78CE0C82E82E0D82E9E
:102AE0007F0104EB11E0F701D182C0824AE050E09F
:102AF000B801CE0101960E94993388E0FE0131961B
:102B0000D60101900D928A95E1F789859A85D701C2
:102B100013969C938E931297BAE0CB0ED11CE7E0EC
:102B2000EE0EF11C065F1F4F0430F2E01F07D9F6CE
:102B30002A96E8E00C941F33AAE0B0E0E2EAF5E15F
:102B40000C94013305E313E084E0E82E82E0F82ED4
:102B500097E0B92E2BE0C22E22E0D22EAA24A39415
:102B60004AE050E0B701CE0101960E949933F80186
:102B70003896DF018B2D1D928A95E9F789819A811C
:102B8000D80111969C938E938F8112968C931297F5
:102B90008D8113968C931397888514968C93149734
:102BA000898515968C9315978B819C8117969C939C
:102BB0008E9316978A8587FD04C01E96DC92CE926E
:102BC0001D9780FF02C0F801A08681FF07C0D801D1
:102BD00018969C911897926018969C9382FF04C057
:102BE000F80190859460908783FF07C0D8011896FC
:102BF0009C911897986018969C9384FF04C0F801E4
:102C000090859061908785FF07C0D80118968C91B8
:102C10001897806218968C93BAE0EB0EF11C015F56
:102C20001F4FE4E5EE16E2E0FE0609F099CF2A9682
:102C3000EAE00C941D33282FCB01283070F44AE0D1
:102C4000249F90011124B9016C597E4F4AE050E055
:102C50000E94993380E090E008958FEF9FEF0895F0
:102C6000AAE0B0E0E6E3F6E10C9409339C01975545
:102C70008115914070F4BE016F5F7F4F822F0E94DB
:102C80001B16892B31F489859A852A96E2E00C94EB
:102C900025338091260590912705F7CFA0E0B0E07D
:102CA000E4E5F6E10C9403338901D42FC52F6B01C1
:102CB0007C010E945D07A8016D2F7C2F88E090E0C9
:102CC0000E94DF3398014D2F5C2FB601C70100E24F
:102CD0000E944B33622F83E290E00E94CD33CDB748
:102CE000DEB7E8E00C941F3380915004833018F471
:102CF0008F5F8093500420914C0430914D0440919B
:102D00004E0450914F046091500470915104809191
:102D10005204909153040E944E16089580915004DD
:102D2000811519F081508093500420914C0430910A
:102D30004D0440914E0450914F04609150047091A5
:102D4000510480915204909153040E944E160895AC
:102D5000A3E0B0E0EEEAF6E10C940533F82E062F7E
:102D6000142FE22E80914C0480FF31C0E82FE695AD
:102D7000E695F0E0E75DFE4F9081909349048C7FEB
:102D8000843079F4413408F040E49E012F5F3F4FD6
:102D9000602F8F2D0E94CE064B8169818A810E940F
:102DA000AF14F0924D0400934E0410934F04E114BD
:102DB00071F020914C0460915004709151043F2DAA
:102DC000A80180915204909153040E944E162396BC
:102DD000E6E00C942133CF93C82F0E94F903823090
:102DE00099F08330B1F0813039F021E04FEF6FEF8F
:102DF00085ED0E94A81605C040E068E080E00E94D2
:102E0000AF148C2FCF91089521E04FEF6FEF80E04A
:102E1000F0CF21E04FEF6FEF8AEAEBCF0E94EB1685
:102E200080930D05089521E030E001C0220F8A95BE
:102E3000EAF780910D05822B0E940E170895962FB8
:102E40002091330522FF10C0682F660F660F660FB2
:102E5000692B60935A040E9413170E945E09909395
:102E60005C0480935B0408950E941317089521E089
:102E700030E0A90102C0440F551F8A95E2F7CA014C
:102E8000809590910D0589230E940E1708959091C9
:102E90005A048095892380935A04282F2770211182
:102EA00011C0891779F09091330592FF0BC0869578
:102EB000869586950E94371710925A0410925C04EA
:102EC00010925B0408959091330592FB222720F91C
:102ED000281779F080FB92F99093330560913205C1
:102EE0007091330584E090E00E94EB3382E00E9411
:102EF0004717089590910D0521E030E0F90101C0D8
:102F0000EE0F8A95EAF7D90102C0AA0FBB1F6A9596
:102F1000E2F7EA2B01C0220F4A95EAF7892F8E23A8
:102F2000E81305C0892F822B0E940E170895209563
:102F3000822F8923F9CFECE4F4E0818121E0438101
:102F40006281885F0E94A8160895ECE4F4E0818114
:102F500021E04381628188500E94A8160895ECE424
:102F6000F4E0628121E1620F08F46FEF21E0438118
:102F700081810E94A8160895ECE4F4E0628121E1C9
:102F8000621B08F460E021E0438181810E94A81661
:102F90000895ECE4F4E0438121E1420F08F44FEF9F
:102FA00021E0628181810E94A8160895ECE4F4E09A
:102FB000438121E1421B08F440E021E062818181EC
:102FC0000E94A816089560914C046695669570E07D
:102FD00041E050E080E091E00E946F33892B19F4CA
:102FE00081E080934A040E945E0990938502809359
:102FF0008402089520914C0420FF31C02370246086
:1030000020934C04611581F030914D0440914E04A1
:1030100050914F046091500470915104809152047A
:10302000909153040E944E1660914C0466956695EB
:1030300070E041E050E080E091E00E946F33892B26
:1030400079F010924A0481E08093870220E0409159
:103050004F0460914E0480914D040E94A81608957B
:103060000E94E317F0CFABE0B0E0E9E3F8E10C94A5
:10307000F9327C01DC0114968C91811509F468C148
:1030800061E0C7010E94B60D8C01F70185818115B1
:1030900031F18091380490913904009701F10817BB
:1030A0001907E9F0FC01FF27887F9927892B09F090
:1030B00067C074E0EE0FFF1F7A95E1F7E854FC4F0C
:1030C00085818460858311830083CF010E9467130B
:1030D0001092590461E0C7010E94B60D8C01D7011E
:1030E00015968C91811509F4BEC0C8019757803898
:1030F000910508F0EAC0D02EB0E10B1708F017C117
:103100008FEF93E00E94A933811111C104E512E011
:10311000D11039C064E0662E9E012F5F3F4F5901E8
:10312000D501E62D1D92EA95E9F74801FFEF8F1AC8
:103130009F0AC8010E94A9338983811509F4F7C049
:10314000813009F08AC0680122E0C20ED11CC4019E
:103150000E94A933782E8A83811509F4E8C08FEF85
:10316000870D8330F0F4C6010E94A9338B8381154B
:1031700019F0C5010E94ED130D5F1F4F680171C06A
:10318000E0E0F0E09DCF0115E4E01E0709F4CFC0B8
:10319000C8010E94A9330F5F1F4F8111F4CFDA9449
:1031A000B7CF8BEF870D833060F5480143E0840E85
:1031B000911CC6010E94A9338B83811509F450C06C
:1031C0000C5F1F4F6801C4010E94A9338C838115D5
:1031D00009F447C08B819C818130AFEF9A0710F0D2
:1031E000982F8827B6E07B1631F0E7E07E1631F0A5
:1031F0000E94612736C00E94192733C00E943D27D4
:1032000030C0F4E07F122DC0C6010E94A933982E71
:10321000680124E0C20ED11CC80103960E94A933A4
:10322000282F911409F483C0811509F480C021501E
:10323000330B4FEF429FC001439F900D1124492D46
:103240004150550B840F951F019758F0AFE9BFE02F
:103250001197F1F700C00000F7CFC5010E94ED13F0
:10326000640186015DCF6801E7E5DE1AC114F1E073
:10327000DF0658F569E273E08C2D0E941B16892B3E
:1032800021F5C60144E0880F991F4A95E1F7FC013A
:10329000E854FC4F22812130A1F52091290330917F
:1032A0002A03232B91F020912B0330912C03232B05
:1032B00061F020912D0330912E0340912F03509106
:1032C0003003242B352B232B21F1D70115962C907D
:1032D000211409F441C00E35BCE71B0729F10F3555
:1032E000ECE71E0741F00D35FCE71F07A9F58091BB
:1032F0000E018115C9F010920E0180E00E948E131C
:1033000016C0223011F720912D0330912E03232B6C
:10331000E1F2FC01E354FC4F20812E7F208388548E
:103320009C4F0E946713D1CF81E080930E01809162
:103330005A048770811561F0D70115968C9181151B
:1033400039F08091330582FF03C082E00E94471765
:103350002B96E2E10C94153380910E01811148C047
:10336000C80197558115914008F0DEC05801F8EF6B
:10337000AF22BB24A114B104D1F6F801FF2724E049
:10338000EE0FFF1F2A95E1F79F0128543C4F69017A
:10339000D70115968C91E354FC4F908180FB90F9F6
:1033A0009083811509F4FDC10E945E0990933B044E
:1033B00080933A04F60182818F5F82838091590461
:1033C00090915704892B838380915604848346818E
:1033D000578166857785C6010E94A008D60115969B
:1033E0008C9181FF5801B0923904A09238049CC09E
:1033F000280130EE431A5108309058048091570448
:10340000382A80915604382A48E04416510408F0BE
:103410005EC098012770332781E090E001C0880FDB
:103420002A95EAF7211409F44FC0382AD7018D9163
:103430009C910E94690421E030E0F90102C0EE0F86
:10344000FF1F8A95E2F7FF83EE832091AE03309150
:10345000AF03398728874091B6035091B7035B8744
:103460004A8735E3C32E33E0D32EA12CB12C311083
:1034700005C0D60112968C9181111BC0F601838183
:1034800090E02E813F8182239323892B91F08085C8
:10349000982F9770911101C087E038E043165104CE
:1034A00008F0A7C0211409F4A0C08695817081118D
:1034B000A5C0EFEFAE1ABE0AFFE0CF0ED11C28E088
:1034C000A216B104A1F61CC080953822AFCF2110FE
:1034D00079C08091B6039091B7030817190781F45A
:1034E0001092B7031092B6031092B2031092B30376
:1034F0001092B4031092B5031092B1031092B0036E
:103500008091AE039091AF03009709F429CF38E082
:103510004316510408F02FC1632D0E947F088111CA
:1035200003C081E00E948E138091290580FF2BC08B
:103530000E945E093C01F7018581811509F4A2C151
:1035400080910F0182FF06C040E0B30180E090E06F
:103550000E94B9120431FCE71F0709F48FC105313D
:103560002CE7120709F43AC103313CE7130709F4C9
:103570007BC1C80190528115904308F039C1109267
:103580003F0410923E04D70115969C91911509F4C1
:10359000CEC2980130572332310508F033C384E09E
:1035A00090E00E94B7339093330580933205F80181
:1035B000E150F047E232F10508F0FFC1EB5EFB4C51
:1035C0000C94EC321093B7030093B6030E94ED09FC
:1035D0006093B2037093B3038093B4039093B503E5
:1035E0001092B1031092B00321CF82FB882780F99B
:1035F0005ECF211409F45DCF80FF5BCFD6018D90A3
:103600009C900815190519F4211409F452CFE88586
:10361000F985EC15FD0509F44CCFD6011D96ED9109
:10362000FC91309721F08081811509F442CF632D00
:10363000C6010E947F08811509F43BCF81E008157F
:10364000190509F080E082218D838114910441F0F5
:10365000811106C0EA85FB858E169F0609F029CFE9
:1036600080E00E948E13D092AF03C092AE0381E03F
:103670008093AD038FE08A9DF0018B9DF00D1124A6
:10368000EB5CFC4F8581809334032D8121110EC0AA
:103690008114910459F0808191819C012450310959
:1036A000213A310508F049C00E9432098FE08A9D15
:1036B000F0018B9DF00D1124EB5CFC4FC680D78090
:1036C000C6019A9581159F4110F440EED4229924A9
:1036D0009394C60101978F339E4708F0912C8FE099
:1036E0008A9DD0018B9DB00D1124AB5CBC4F199607
:1036F000ED91FC911A97309731F01B966D917C916A
:1037000081E0099598229114A9F08FE08A9DF0013B
:103710008B9DF00D1124EB5CFC4F868197810E94FC
:10372000C5038093330388E04816510448F4C6016A
:103730000E94F9090E94E10D0BC00E94E10EB6CF74
:10374000C6010497813A910550F48C2D0E94FE0821
:10375000BD81B11509F404CE0E94E10DE8CD0E94AF
:10376000E10DAFE3BCE91197F1F700C000008C2D2B
:103770000E94560EEDCFDC012D913C9102171307EC
:1037800041F4211009C01092AD0380E00E948E1315
:10379000E7CD211409F4E4CDFC01808585FDE0CD61
:1037A000F4CFF9014485558566857785C9010E9466
:1037B000A008D60115968C9181FFB6CEC6010E9455
:1037C0004A1380913804909139040817190709F0B9
:1037D000ABCE1092390410923804A6CE90910F010E
:1037E000892F8E7F90FF816080930F010E949A1233
:1037F00080910F0180FFC7CE0832110508F058C034
:103800000E31110508F065C0C80104974A9788F584
:103810008091290584FD2DC0D70115968C918115C5
:1038200009F4C5C08091560490915704892B8D7F6F
:10383000811509F453C010923F0410923E04809108
:10384000290581FD4BC060E0C8010E941C0860E0B2
:10385000C8010E94CF0E809156048D7F0E94D90925
:1038600082E00E94471763CD80910F0181608093B1
:103870000F01F7018581811182CE85CE80910F01E4
:103880008E7FB2CF80910F018F7E013E110531F006
:10389000053E110531F480910F018F7D80930F015A
:1038A000A7CFC80190528115904308F0A1CF6BCEED
:1038B0000933110558F40D32110518F40B321105B6
:1038C000C1F68091290582FDD4CFA6CF043611051B
:1038D000F7CF8091290583FDCCCF9ECF89E0F701FA
:1038E000A0E4B4E001900D928A95E1F710924304B0
:1038F0001092420480913E0490913F0408171907EA
:10390000C9F52091290525FF35C030910F0131FF00
:1039100002C026FF2FC020913C0430913D0463017A
:10392000C21AD30A0E943016C816D90618F580911B
:10393000570481FF08C080910F01806180930F01BF
:1039400082E00E94AD048091570485FF08C08091F9
:103950000F01806280930F0180E20E94AD046091AC
:103960000F016695617080913E0490913F040E9422
:10397000CF0EDDCC80915604D0905704D82AD1FACE
:10398000DD24D0F88D7F0E94D90910933F04009365
:103990003E0470923D0460923C04DD0C6894D2F8C1
:1039A00090910F01997FD92AD0920F0159CF40E011
:1039B000B301C8010E94B912BACC8091320581606E
:1039C00080933205609132057091330584E090E078
:1039D0000E94EB330E94480FAACC80913305886087
:1039E00080933305EFCF809132058260E9CF8091DB
:1039F00032058460E5CF809132058860E1CF809107
:103A000033058160EDCF809133058260E9CF8091ED
:103A100032058061D5CF809132058062D1CF80910F
:103A200032058064CDCF0E94480F809132058068B6
:103A3000C7CF809132058C60C3CF809133058360FE
:103A4000CFCF809132058E7FBBCF80913305877FAA
:103A5000C7CF809132058D7FB3CF809132058B7FA8
:103A6000AFCF80913205877FABCF809133058E7FBA
:103A7000B7CF809133058D7FB3CF809132058F7E94
:103A80009FCF809132058F7D9BCF809132058F7BB8
:103A900097CF0E94480F809132058F7791CF809108
:103AA0003205837F8DCF809133058C7F99CF8091B4
:103AB0003205992782FF939590FB82F990FB83F959
:103AC0007FCF80913305982F909590FB80F990FBE4
:103AD00081F986CF90913205892F8F7B96FF806484
:103AE0006FCF0E94480F90913205892F97FB87F97D
:103AF000805866CF61E08EE090E00E94CD3362CFC7
:103B000060E0F9CF90913205892F8F7E94FF80611C
:103B100057CF90913205892F8E7F90FF816050CFD3
:103B200090913305892F877F93FF886059CF8091CB
:103B300057048272F801E052F847E531F10508F0C8
:103B400061C0E95CFB4C0C94EC3280914C0480FF2A
:103B500019C0282F2E7F20934C0430914D044091A2
:103B60004E0450914F046091500470915104809123
:103B70005204909153040E944E1610924A040E94DF
:103B80009E14D5CB816080934C0461E08695869528
:103B90000E94FA17CCCB48E658E263E678E20E942E
:103BA0007207C5CB43E658E268E678E2F8CF45EA0B
:103BB00057E16BE977E1F3CF4BE957E165EA77E14C
:103BC000EECF4CEB57E16FEA77E1E9CF4FEA57E1EF
:103BD0006CEB77E1E4CF46ED57E169EC77E1DFCFBD
:103BE00049EC57E166ED77E1DACF4EE856E164E75C
:103BF00076E1D5CF44E756E16EE876E1D0CF61E0DB
:103C000081E0C6CF0737BCE71B0709F47CC0083743
:103C1000ECE71E0709F482C09115B1F00A35FCE704
:103C20001F0709F4A7C008F07EC001303CE7130766
:103C300009F49EC003304CE7140709F493C0011542
:103C40005CE7150709F481C0F7018781908500972B
:103C500009F494C00E94B005082FD92EF701B58051
:103C6000C680C2949FE0C92280915A048770811552
:103C700001F19B2CB114F1F08D2D807F803461F027
:103C800080E2800F8830A8F08D2D807E803221F474
:103C9000023078F0C11469F08091330582FF09C0C9
:103CA00082E00E94471780915A0487709924939468
:103CB0008111912CAD2CA2948FE0A822F8E0AF16D0
:103CC00009F499C129E0A21608F0A0C034E0A316B7
:103CD00008F06BC01D2D1F7042E0A41608F4A9C0A7
:103CE0008D2D807F803211F01295107F011509F41F
:103CF000D7C0013009F441C1B11409F44DC1C11458
:103D000009F4E8C0AAC081E0911551F00E94131790
:103D100043E062E081E00E947A1709CB82E0F4CFB1
:103D20000E943717F5CF0B358CE7180729F18091E2
:103D30003305002482FF0394802D0C359CE719077E
:103D400009F082CF0E9463177FCF0E94480FAFEF28
:103D5000B4E3ECE0A150B040E040E1F700C0000067
:103D60000E94E80B6FEF7FEF80E090E00E94EB3362
:103D70000E946A0F81E0E6CF80E0E4CF8581C080B9
:103D8000D180811569F0C6010E944A0D182F682F55
:103D9000C6010E943304B601812F0E942D0D5ACF17
:103DA000C6010E946904182FF6CF54E0A51609F445
:103DB00005C1AA2DA850BB0B149710F40E94A508AA
:103DC000802F9D2D0E940C04811113C21092350585
:103DD000109234059114A9F080915A0480FD11C00D
:103DE000F70115828695869586950E941317C7015F
:103DF0000E94331880915A048695869586950E9474
:103E0000371760E0C7010E94B60DA2CA89E0A81664
:103E100009F460C186E08A0D8F70823050F6023F4F
:103E200009F068C18D2D8F71B11061C10E94131707
:103E3000C0CF90E1D91610F01295107FB114B9F0EF
:103E4000111559F080E2800F883010F0011109C07F
:103E5000812F0E94A7040E94E10D802F0E94560E20
:103E6000A8CF80915904812B80935904F4CF802FDF
:103E70000E94E10E111509F49CCF80E2800F88307A
:103E800010F0011104C0812F0E94AD0406C01095EE
:103E9000809159048123809359040E94E10D89CFB8
:103EA0008091330582FD12C0B11449F0111529F03B
:103EB000812F0E94A7040E94E10D80E0CFCF80E017
:103EC0000E94E10E111509F474CFDDCFB11491F108
:103ED000C11004C0812F0E94330E6BCFB1E0CB1212
:103EE00011C080905604812F8821181709F461CFE2
:103EF0000E945E099093550480935404812A809215
:103F0000560457CF80912A05823008F452CFC81248
:103F100050CF812F0E94330E812F0E94C3098091C0
:103F20005804912F9823191709F443CF812B8093BC
:103F300058043FCFC11012C0812F0E94440E812F20
:103F40000E94C30980915804912F9823911509F478
:103F500030CF10951823109358042BCF80912A0549
:103F6000823008F426CFE1E0CE1223CF80915704AF
:103F70008123811509F41DCFDFCF80913005B11465
:103F800021F08C1508F415CFA5CFC81608F011CF75
:103F9000812F0E94440E0DCFC114D1F380912E05C4
:103FA00090912F05093321F080912C0590912D05DA
:103FB0000E94AD0B802F0E94E10EFBCE8D2D8695C9
:103FC00086958370811569F0813009F0F2CE802FDB
:103FD0009D2D9370B11002C080E090E00E94D8083F
:103FE000E8CE802F9D2D9370B11002C080E090E04C
:103FF0000E94B208DECE8D2D8370811133C0B110C6
:10400000D8CE402F429546954770440F440F802FDD
:104010008F70042E01C0880F0A94EAF7202F2071B8
:1040200004FF07C02FE030E001C0220F4A95EAF7F5
:1040300020953D2D369536953370323071F0333002
:1040400051F040910C05313029F0822B84230E94DD
:104050003004AFCE842B822BFACF822B90910C05AB
:104060008927F5CFB11459F1D0FEA3CE402F429548
:1040700046954770440F440F802F8F70042E01C067
:10408000880F0A94EAF7202F207104FF07C02FE061
:1040900030E001C0220F4A95EAF720953D2D369574
:1040A00036953370323089F0333069F040910D0528
:1040B000313041F0822B84230E940E177ACE823059
:1040C000A8F677CE842B822BF7CF822B90910D050B
:1040D0008927F2CF1D2D1F70B11429F0812F0E9466
:1040E0001317802FF8CE802F0E94440E812F0E943C
:1040F00037175FCE60F4003FB9F0013F81F0B11493
:1041000009F472C0C110A9CE8D2D8F718FCE033FDF
:10411000F9F0043FA1F78091330582FD25C08D2D74
:104120008F71B11421F382CE80913005B11461F00A
:10413000C81608F03ECE2D2D2F7181E090E001C011
:10414000880F2A95EAF7C2CF8C1508F432CEF3CF48
:1041500080E0B11409F4B0CF81E09D2D9F7101C0C2
:10416000880F9A95EAF7A8CF80912A05823048F106
:10417000B114C9F090915A049770943061F4109280
:104180005A0410925C0410925B048D2D8F710E9472
:104190003717912C13CEC816E0F763E08D2D8F7181
:1041A0000E941F17F6CFC81640F010925A041092C2
:1041B0005C0410925B0464E0F1CF81E00E94471739
:1041C000E8CFB11431F063E08D2D8F710E941F177D
:1041D000F0CD81E00E944717F2E0CF1608F4E9CD58
:1041E00082E00E944717E5CDC110D8CE8D2D8F718A
:1041F0007ECFB11419F0C110E9CDECCDC110E6CDE0
:1042000040E0D70115966C9115978D919C910E9475
:10421000980D80912B0583FFD9CD80913405909125
:104220003505029709F0D2CD802F0E943B0FCECDED
:10423000A0E0B0E0EEE1F1E20C94043380911703CA
:10424000803108F049C080911603811509F444C0FB
:10425000C091C80289E0D82E8091C7028C17E1F185
:10426000EC2EF12CDC9EE0011124FE01E753FD4F02
:1042700084818115B1F1918180911203981331C02D
:1042800090818091110398132CC08581811129C0E0
:10429000028113818091130390911403081B190B61
:1042A00060E081E193E00E94B60D0E94301608178D
:1042B0001907B8F4809117038F70806180931703FA
:1042C000C153DD4F88818F708061888381E193E0E5
:1042D0000E9433180E949D04CDB7DEB7E7E00C942E
:1042E0002033E7012196C770B7CFAFE0B0E0EBE72E
:1042F000F1E20C94FC328C0186E0F801DE011A96A2
:1043000001900D928A95E1F7D80115966C9015975A
:1043100014965C9081E1A82E83E0B82E809115035D
:10432000811118C0511499F0611409F4BFC1C8017A
:104330000E94840D811509F4B9C189E0F801A1E159
:10434000B3E001900D928A95E1F70E941821FF24B5
:10435000F39451C0F801C0807180E280F38060E086
:1043600081E193E00E94B60DD09016038091130373
:10437000909114034701881A990A60E081E193E063
:10438000D11409F444C10E94B60D0E94301688165B
:10439000990608F0F7C05114D1F280911203D801A8
:1043A00011969C91B0901703B0E1BB1608F0A1C024
:1043B000F62C981325C090911103F8018081981371
:1043C0001FC0209118033091190387819085281709
:1043D0003907B1F4611078C08B2D8F7080618093A4
:1043E000170381E193E00E94331880911703D801ED
:1043F00016968C93F12C8F2D2F96EFE00C9418339A
:10440000611062C0E091C8028091C702AE2F99E0AE
:10441000A81302C099E02AC02A2F30E09A9FD00149
:104420001124A753BD4F11964C911197741207C0D8
:104430004C91C41204C015964C91411141C1D9014F
:104440001196A770E5CF2E2F30E09E9FF00111242A
:10445000E753FD4F4181741206C04081C41203C06E
:1044600045814111C7CFF9013196E7708E13EBCF2B
:104470008A859B850E94750D292F22952F70903477
:1044800048F02A5F2F702230C8F0C8010E9433180C
:10449000FD2CB1CF9F70223038F0911551F0F8010A
:1044A0009681903130F4A7CF911519F0811509F458
:1044B000A2CF805E883008F49ECFE7CF803F08F41B
:1044C0009ACF815F8330F7CF80911703816080930B
:1044D000170380912B0581FD8DCF81E193E00E9430
:1044E000331889E0E1E1F3E0DF011D928A95E9F7F5
:1044F00081CF981321C090911103D8018C9198130A
:104500001BC0209118033091190317968D919C912F
:1045100018972817390781F461100EC01696BC92BF
:10452000C8010E94331889E0F801A1E1B3E00190CD
:104530000D928A95E1F70BCFC8010E94840D811579
:1045400009F4B4C0611409F4B1C08091170380323A
:1045500008F4F3CE80911103909112039A8389831A
:10456000FC82EB82809115038D831E82BF82809135
:1045700018039091190399878887CE0101960E94AC
:104580003318DBCED0901703B0E1DB1608F4A5CFCB
:10459000511409F4DCCE90911203F8018181981333
:1045A0001AC0909111038081981315C020911803AF
:1045B00030911903878190852817390761F46110BC
:1045C0000AC0D682C8010E94331889E0D5011D9225
:1045D0008A95E9F7BCCEC8010E94840D811509F4C3
:1045E00065C0611409F462C080911703803208F439
:1045F000A4CE80911103909112039A838983FC8247
:10460000EB82809115038D831E82DF82B0CF0E94E2
:10461000B60D0E9430168816990608F04BC051144A
:1046200009F495CE611409F441C090911203F80188
:104630008181981331C090911103808198132CC00F
:104640002091180330911903878190852817390725
:1046500019F58091130390911403E81AF90AF8EC04
:10466000EF16F10408F05FCF8091170380FD5BCF58
:10467000803108F458CFD80116968C931697982F4E
:10468000907F903F09F44CCF982F907F905F8F7070
:10469000892B16968C9344CFC8010E94840D8111FA
:1046A0004CCE80911703816080931703C8010E944C
:1046B00033184DCE89E0F50111928A95E9F79ACE2B
:1046C00090912B0590FFA6CE08CFA2E1B0E0EBE6DB
:1046D000F3E20C9407330A871B872C873D874E87AC
:1046E0005F87688B798B8A8BCE010A960E94752131
:1046F000811128C02091C7023091C80289E0FE01D3
:104700003A96DE01119601900D928A95E1F78E8519
:104710008115C1F0822F90E0019687709927381794
:104720001906D9F099E0929FD0011124A753BD4FEB
:10473000FE01319601900D929A95E1F78093C702A0
:104740000E949D0419E08091C8029091C7028913CC
:1047500012C06296E4E00C9423330E94480F10923A
:10476000C7021092C80289E0E1E1F3E0DF011D9287
:104770008A95E9F7E7CF189FC001112487539D4F11
:104780000E947521811529F38091C80290E001965D
:10479000877099278093C802D6CFEF92FF920F932C
:1047A0001F93CF93DF9380910905E091EA01CDE05B
:1047B000811131C0CDB7DEB7E6E00C942133D1E0F2
:1047C000DE0FD093EA01EE2EF12CCE9FF0011124E2
:1047D000EF55FB4F84818115E9F087819085892B06
:1047E00021F481859285019659F4008111812281FD
:1047F0003381448155816681778180850E9465235C
:10480000CE9DF001CF9DF00D1124EF55FB4F14828A
:1048100010925904ED2F80910905E81780F210924B
:1048200009051092EA01C6CFA4E0B0E0EAE1F4E2A3
:104830000C94FA322091A004298397E0992EEE245B
:10484000E394F12C3DE0332E44E0542E662463942F
:1048500080919F049981891308C00E94CD230E94F2
:1048600042082496E1E10C9416337981672F70E0B9
:104870007C836B83FB01EE0FFF1FEB56FB4F8081A8
:104880009181989ED001999EB00D1124FD01E35AAB
:10489000FB4FFA83E983248121115BC070900905E5
:1048A000E1EAF4E040E050E0812C471508F04FC009
:1048B000A384B484A981BA81CD90DC900FEF1FEF5F
:1048C000412C242D30E0B601640D711D640D711D65
:1048D000DB016D917C916115710539F0A616B70663
:1048E00009F0980143948901ECCF0F3F1007D1F1F3
:1048F000B701002E01C0660F0A94EAF7862AB701B5
:10490000042C02C0660F771F0A94E2F79B01215026
:1049100031098216130629F5349EF001359EF00DFB
:104920001124EF55FB4F989ED001999EB00D112494
:10493000A35ABB4F12962D913C9113973087278332
:104940005482108211829287818715966C920E9400
:1049500053088B819C8101969A8389838370898314
:1049600077CF14824F5F5F4F3D969FCF10920B051C
:1049700010920A051092100180919F048093A00468
:104980000E9442080E94CD230895A0E2B0E0EBEC23
:10499000F4E20C94F9324B8B5C8B6D8B7E8BC82EC2
:1049A0008F8BD92E988F182F992E811549F08091D1
:1049B0003405909135050196909335058093340523
:1049C000911010925904188A198A1A8A86E0FE01F9
:1049D0007396DE011A9601900D928A95E1F7809107
:1049E000330582FF21C08091100590911105892B1C
:1049F000D9F00E945E0920915B0430915C04821B17
:104A0000930B20911005309111058217930738F010
:104A100080915A0482FD03C082E00E9447170E94E1
:104A20006A0981110E94B504111589F0CE86DF86CE
:104A300061E0CE010A960E94B60D5C0180352CE73C
:104A4000920791F4911419F181E080931001CE86C0
:104A5000DF860A851B852C853D85A60168897989B5
:104A60008A890E946523CBC081353CE7930729F4EE
:104A7000911469F00E94B624EACF82359C4739F43C
:104A8000911429F0809110018111F4CFDDCF5DE503
:104A9000E52E54E0F52E812C412C512CD7016D913F
:104AA0007C91BFEFB98FBA8F80E0282F30E0FB01F7
:104AB000E80FF11DE80FF11D4081518141155105AD
:104AC00049F0A416B50611F0298D3A8D8F5F3A8F03
:104AD000298FEBCFE98DFA8D10E0319609F44BC0A8
:104AE000D70114964C9110911001411110E0F7017B
:104AF00035802681911409F408C1111509F405C106
:104B00006090240570902505311015C041E050E0FB
:104B1000098C02C0440F551F0A94E2F7242B268308
:104B200020919D0430919E042615370520F4709243
:104B30009E0460929D0421E030E0A90102C0440F70
:104B4000551F8A95E2F7CA010197D70116962C9155
:104B50002817190681F480910A0590910B0500979A
:104B600009F451C00E94470A6816790608F04BC044
:104B700081E0F7018483812AFFEF4F1A5F0A27E063
:104B8000E20EF11C38E04316510409F087CF91146E
:104B900009F418C1811409F415C10E945E099093AB
:104BA0000B0580930A0580910905883040F591E056
:104BB000980F9093090599E0FE013A96DE0111964F
:104BC00001900D929A95E1F7CD82DE824DE0849FAF
:104BD000C00111248F559B4F29E0FE013196DC0165
:104BE00001900D922A95E1F72FEF3FEFDC011A9625
:104BF0003C932E9319971C96BC92AE921B97A0964D
:104C0000E2E10C9415339091A00430919F04892F18
:104C1000E0E0F0E027E0931709F447C0692E712C1B
:104C2000D301AA0FBB1FAB56BB4F4D915C915C8F5C
:104C30004B8F249FD001259FB00D1124A35ABB4F49
:104C40006D917C9178A36F8F00E060E070E0AF8D94
:104C5000B8A1A70FB11DA70FB11D2D903C90211435
:104C60003104E1F0D7010D90BC91A02DBE8FAD8F26
:104C700060E007C0A1E02416350609F0A0E00A2B89
:104C80006F5FAD8DBE8DA60FB11DA60FB11D4D91ED
:104C90005C914115510571F77F5FD9CF011591F1F5
:104CA0006717C0F491E0F70194838093A004EE1598
:104CB000FF0509F460CF832F90E0FC01EE0FFF1F8A
:104CC000EB56FB4F51824082019683709927809367
:104CD0009F0451CF4B8D5C8D249FF001259FF00DDB
:104CE0001124E35AFB4F51E05483EE15FF05E9F21E
:104CF000981302C08F5F8370A3014F5F5F4F942FA3
:104D0000937089CFE0E0F0E0F7CF30E0311022C0BF
:104D100061E070E002C0660F771F8A95E2F7CB0171
:104D200001972817390781F010E081E090E0098CA5
:104D300002C0880F991F0A94E2F7982F9095F70107
:104D400086818923868317CF411579F3C2010E949A
:104D50005308EACFA901098C02C0559547950A94DA
:104D6000E2F7C901019782239323892B41F540FF84
:104D700026C0D70112968D919C91892BD9F087E09E
:104D8000FE013196DF011D928A95E9F70E945E09C6
:104D90009C018B839C8384E08D83F70192818381C6
:104DA000792F9887898709811A8144E05E816F8114
:104DB0000E946523D70115961C92132DB6CF142F90
:104DC0001170B3CF9091A00480919F04981729F09F
:104DD0000E941424811013CF3ACE0E94CD2310924A
:104DE0000B0510920A050E944208F4CFA6E0B0E03D
:104DF000ECEFF6E20C9407330E945E098C0180917F
:104E00009B0290919C028017910779F019821A8277
:104E10000E945E09BC0149815A8180E090E00E94B5
:104E2000C52410939C0200939B022696E4E00C9408
:104E30002333A6E0B0E0EFE1F7E20C9409339C01E4
:104E40009093980280939702211580E2380738F4F6
:104E5000C9010E94B90E2696E2E00C94253380EF3A
:104E600089838A830E945E098160BC0149815A81DD
:104E700081E091E00E94C524EECFA6E0B0E0E3E43B
:104E8000F7E20C9409339C01909398028093970267
:104E9000211580E2380738F4C9010E940B0F2696CD
:104EA000E2E00C94253380EF89838A830E945E09B7
:104EB0008160BC0149815A8181E090E00E94C52453
:104EC000EECFCF93DF93D82FC92F0E94192780915F
:104ED0002C0590912D050E94AD0B8D2F9C2F0E94CB
:104EE0003D27DF91CF9108950F931F93CF93DF93C9
:104EF0008C01862F69E273E00E941B16892BA9F4AE
:104F0000C0912903D0912A03209779F0F80182817A
:104F1000833051F4CE010E946127CE010E946127A7
:104F2000CE010E94612701C0D8F7DF91CF911F9178
:104F30000F9108950F931F93CF93DF938C01EB0193
:104F400069E273E08C2F0E941B16892B09F05AC06E
:104F5000FE01FF27D80112968C911297E45AFD4F5B
:104F60008130A9F415968C9182FD51C080FF4FC00D
:104F700082E0808380912B0390912C030097B9F4F9
:104F80008091290390912A030097E1F110C08230AB
:104F9000B9F515968C9182FD28C080FD0BC083E089
:104FA000808380912D0390912E03009701F10E9440
:104FB000192728C084E0808380912F0390913003CB
:104FC0000097A9F78091290390912A03009711F186
:104FD0000E94612780912B0390912C03009739F751
:104FE0008091290390912A03E2CF85E0808380910C
:104FF000290390912A03009729F00E946127F0CF9E
:1050000086E08083DF91CF911F910F91089581E019
:105010008083B6CF80912B0390912C03B5CF0F9353
:105020001F93CF93DF938C01EB0169E273E08C2F28
:105030000E941B16892BA1F480912C0590912D05BF
:105040000E94AD0BDD27C45ADD4F8881F801128222
:1050500018828330F1F048F4813059F0823081F0C9
:10506000DF91CF911F910F9108958430B9F0853071
:10507000B9F78091290390912A03009789F306C01C
:1050800080912B0390912C03009799F30E943D2768
:10509000E7CF80912D0390912E03F6CF80912F03BF
:1050A00090913003009791F72091290330912A03C2
:1050B00080912B0390912C0321153105F1F200977B
:1050C00029F7C901E3CF61E081E00E94FA17089552
:1050D00080914C04869586958A9509F481E061E07B
:1050E0000E94FA1708959C01CB01DA01F90132966A
:1050F00045915491A417B50748F0F901349665918C
:1051000074910E94893380E090E008958FEF9FEFC3
:1051100008959C01DA010296FC0145915491FC012D
:1051200085919491A817B90758F0F90134968591A3
:1051300094910E9489330E94BB0C80E090E0089516
:105140008FEF9FEF0895A5E0B0E0E9EAF8E20C9454
:10515000FE32FE01319685E0DF011D928A95E9F766
:105160008BE2A82E81E0B82E8F014F01EE24E3944C
:10517000F12C27E3C22E21E0D22EF50181915F01AF
:105180008F3F09F43EC0F894E82FE295EF70F0E00D
:1051900021A18F70A70102C0440F551F8A95E2F725
:1051A000CA01922F982B91A392A18095892382A363
:1051B000789400C0E0E3F1E031E0712C21912F3FC1
:1051C00079F0A22FA295AF70A05EB0E08C9190E034
:1051D0002F7002C0959587952A95E2F780FF37C01A
:1051E00080E0782A330FCE16DF0641F7F501829171
:1051F0008F3F11F00E94B50650EA5A95F1F7D80199
:105200007C920F5F1F4FB0E3AB16B1E0BB0609F015
:10521000B4CF45E050E0B40187E692E00E947C33D1
:10522000892BB9F085E0F401A7E6B2E001900D9278
:105230008A95E1F781E08093D0010E945E09909306
:10524000CF018093CE012596EDE00C941A33832F85
:10525000C8CF8091D0018115B1F38091CE0190919A
:10526000CF010E94470A059770F345E050E067E6DA
:1052700072E08FE892E00E947C33892B49F085E050
:10528000E7E6F2E0AFE8B2E001900D928A95E1F72F
:105290001092D001D8CFCDB7DEB7E8970FB6F8940B
:1052A000DEBF0FBECDBF85B7806885BF85B780687C
:1052B00085BF84B7877F84BF0FB6F894A895809187
:1052C0006000886180936000109260000FBE80E8EB
:1052D00090E00FB6F89480936100909361000FBE48
:1052E00083EB96E09093A5018093A4010E94880728
:1052F0000E9458150E949C150E94D80C0E94030B16
:105300000E94520B8091E20084608093E2007894C6
:1053100080919602811599F08091E9001091EC003E
:105320008F70179511271795182B1092E90080910F
:10533000E80083FD0E94D50F1F701093E90082E002
:1053400084BD93E095BD9AEF97BD80936E000E9457
:10535000C80D811102C00E9448150BE211E0D8016E
:105360008D918D018F3F11F00E94B506B1E00033A1
:105370001B07A9F700E311E0F80181918F018F3F2E
:1053800011F00E94B506F1E007331F07A9F785E089
:10539000EFE8F2E0DF01882E1D928A94E9F7E7E654
:1053A000F2E0DF011D928A95E9F780E090E00E942B
:1053B000B733853E9E4F21F40E94C80D811163C012
:1053C00065EE7EEF80E090E00E94EB3360E082E0EB
:1053D00090E00E94CD3381E080930C0561E083E092
:1053E00090E00E94CD3360E074E184E090E00E94A0
:1053F000EB3360E086E090E00E94CD3360E087E030
:1054000090E00E94CD3340E050E0BA0188E090E0A7
:105410000E94DF3360E083E290E00E94CD3360E0E1
:105420008CE090E00E94CD3360E08DE090E00E943F
:10543000CD3319821A821B821C821D821E821F821A
:10544000188648E050E067E170E0CE0101960E94C6
:10545000BD3340E050E0BA018FE190E00E94DF33BD
:1054600080E00E94A20C0E94481540E050E0BA0182
:105470008FE090E00E94DF3340E050E0BA0183E12A
:1054800090E00E94DF3382E090E00E94A933809395
:10549000710284E090E00E94B733909333058093CB
:1054A00032050E94A328EFEFF6E701E0E150F0405B
:1054B0000040E1F700C000000E94A32880918F0205
:1054C00080FF08C06FEF7FEF80E090E00E94EB3339
:1054D0000E94E80B83E090E00E94A9330E94300410
:1054E00080910D050E94EB1680916C028111A3C082
:1054F00088E090E00E94B1332B013C0183E290E010
:105500000E94A933282F30E040E050E060E070E0D6
:1055100080E090E000E20E943033F901DA0183017B
:10552000720120E030E0A901EBA6FCA60DA71EA7A2
:105530002FA738AB49AB5AAB2E2F24293F2D3F2B39
:10554000402F4A2B512F5B2B20934C0430934D045A
:1055500040934E0450934F04609350047093510451
:105560008093520490935304243008F052C025E0F5
:1055700020934C0410924D042FEF20934E0420E40E
:1055800020934F041092500425E030E04FEF50E498
:1055900060E00E944E1688E090E00E94B1336DAB4F
:1055A0007EAB8FAB98AF83E290E00E94A933282FA7
:1055B00030E040E050E060E070E080E090E000E249
:1055C0000E9430336DA87EA88FA898AC23013401C7
:1055D000812C912C54014BA65CA66DA67EA68FA6AD
:1055E00098AAA9AABAAA7DA82729352946298EA44E
:1055F000582920934C0430934D0440934E0450930B
:105600004F0460935004709351048093520490931C
:1056100053040E945D0710924A040E941A08809168
:105620004C0480FF05C060E0869586950E94FA17BD
:1056300081E080936C0281E091E09093BE028093C0
:10564000BD02809196028530D9F480919602853012
:1056500009F462C00E94480F0E94A50810926F02D0
:1056600080916E02811551F080914C04816080938D
:105670004C0460E0869586950E94FA170E94E31715
:105680000E94A32802E712E02FE8E22E22E0F22E89
:10569000D701F80191918D9147E752E04E175F07CE
:1056A00009F486C09817B1F3B12CD701AD907D01F4
:1056B000F80181918F018A1539F1782E7A24912C85
:1056C00088248394872D88218115B1F09982BA822C
:1056D0000E945E099C838B83F1E0FD8391E08A2D1B
:1056E0008821811101C090E09E8349815A816B819C
:1056F0007C818D810E94C5249394880C97E0492E6B
:105700009410E0CFF801A292B39485E0582EB51022
:10571000CCCF0E94ED0950C080919602843009F4EC
:105720003BC010924A0480916F0281110FC09924EE
:10573000939490926F0280914C04982F9170909363
:105740006E028E7F80934C040E949E1410926D0214
:1057500038E1A32EB12C40E4E42E0FB6F894A895BE
:10576000A09260000FBEE092600083B7817F8460EA
:1057700083BF83B7816083BF7894889583B78E7F1A
:1057800083BF0FB6F894A8958091600088618093DC
:105790006000109260000FBE0E94A328EFE8F2E0C4
:1057A000819181114CC502E0E439F007C9F74DCF72
:1057B00098137ACF0E94F6268091B0039091B1039E
:1057C000892B09F43EC040917F0250918002609184
:1057D0008102709182022FB7F894809177029091A4
:1057E0007802A0917902B0917A022FBF841B950BA9
:1057F000A60BB70B40917B0250917C0260917D0219
:1058000070917E0284179507A607B707D0F08091A4
:10581000B0039091B1030E94B90E1092B10310929F
:10582000B00310927F0210928002109281021092B7
:10583000820210927B0210927C0210927D021092E2
:105840007E0200913804109139040115110541F1CF
:1058500080913A0490913B040E94470A8BAB9CAB29
:10586000C8010E9430166BA87CA886159705C0F465
:105870002091380430913904C9019927287F3327B2
:10588000232B09F0D2C0B4E0880F991FBA95E1F735
:1058900088549C4FDC0115962C9122FF0E946713BF
:1058A00080911001811501F180910A0590910B05FD
:1058B0000097D1F00E94470A20919D0430919E04E8
:1058C0002817390788F49091A00480919F049817B5
:1058D00009F4AEC00E94142410929E0410929D04FC
:1058E00010920B0510920A058091290580FF1DC0BA
:1058F00080910F0182FF19C00E945E091C018091F6
:105900003C0490913D049101281B390B80910B01BF
:1059100090910C012817390740F041E0B1018091C6
:105920003E0490913F040E94B91210914A0411154F
:1059300051F180914C048695869590914904891B7C
:105940008093860280918702811561F01092870210
:105950000E945E09909385028093840210928902CE
:10596000109288020E945E09209184023091850283
:10597000821B930B8F3F9F4730F42053384F309357
:1059800085022093840280918302811559F0109240
:105990008302111107C080914C0460E086958695C2
:1059A0000E94FA170E94A50890918A02891721F097
:1059B00080938A020E94ED0980919602843009F05A
:1059C00040CE83E08093E9008091E80082FF39CEE9
:1059D0008091E80090E085FF05C00E94D20A811501
:1059E00081F191E08091E8008B778093E800911538
:1059F00009F427CE0091990210919A02E9810115CC
:105A00001105D9F1EE3F09F05BC08A81833020F0A7
:105A10008550833008F054C0EA81EE3008F050C061
:105A2000F0E0E45BFB4C0C94EC3280E090E032CF91
:105A30000E94CD2310920B0510920A050E94420885
:105A400053CF00E210E0FE0131967F018091E80023
:105A500085FD0AC08091E8008B778093E8000E9462
:105A6000D20A811599F3BDCF8091F100D7018D93B2
:105A70007D010150104051F7B4CFE43150F4E115ED
:105A800051F0E150E33138F4F0E0E65AFB4C0C946D
:105A9000EC32EE3F09F28FEFFEC31A8289E08B836E
:105AA0000FC08A818230A9F08330E1F0813099F70C
:105AB0000E94ED090E94F2326B837C838D839E836A
:105AC00040E250E0BE016F5F7F4F82E00E940C0C0D
:105AD000B8CD87E290E00E94A9331B821C821D8210
